:020000040000fa
:080000000002040000000000f2
:020000040000fa
:1000080090020000900200009002000090020000a0
:100018009002000090020000900200009002000090
:100028009002000090020000900200009002000080
:100038009002000090020000900200009002000070
:020000040000fa
:020000040000fa
:100400000f8020000e7f22000e01880000000000f7
:100410000c000700804a20000100200011000700a6
:10042000000020000000e000020032000000020096
:1004300000000000d2020200000000000040da00cc
:100440000000fe004440a900000020000000e00081
:100450000300320000002000a00188004440a800f2
:100460000000060091018800800078000000eb0089
:1004700015003700e280400032a0b4009101ba00bc
:10048000e280400032a0b4009102ba00e280400055
:1004900032a0b4000002eb00472bde00f507b200eb
:1004a000602ce10004003a000059eb008301e900f0
:1004b000fdff3e00040037006128e100010032002a
:1004c0000082eb00040007001101ba000200e00006
:1004d000e8ff3a00000006003159ba008301e90044
:1004e0000c0032002159ba008301e90008003200f3
:1004f0000400e00003003a00e280400032a0b400b3
:10050000f5ff370011d9ba008301e900faff3a007c
:100510008100e800e180400032a0b4000000060045
:100520000040da000000fe00839f68000100e00048
:1005300002003d0060001000e08018000300e000b1
:1005400002003d0060011100e08119000500070074
:100550004f00e00002003b0060001000e080180047
:10056000000006006022b800060220000000d00053
:100570008180d2000482d2008582d2000000a000d7
:100580000202520083825a0003003100020242003c
:1005900083824a000000a1000603e900f3ff3a004d
:0405a0000000060051
:020000040000fa
:1005a4000800fa0000f02f0000168800d2c2a8004c
:1005b400d2e2a800c0e2a800d3a2a8000000eb0089
:1005c400000f78000000eb00100798000000eb001b
:1005d400200798000000eb00300798008000070017
:1005e4000300370000000000010037000000000095
:1005f400a11680000004200000806000e00f50007d
:1006040012003a00a000200066000700a116800036
:100614000004200000806000e00f50000f003a004a
:100624001e007800e00f50000c003a00100020007b
:100634001016880010002000000f7800f00e210032
:10064400f10d2200ab00070004003700000f20006a
:10065400101688000000eb00000f7800a11680003f
:100664000008200000806000e00f500012003a00f3
:10067400a00020004b000700a11680000008200005
:1006840000806000e00f50000f003a001e00900050
:10069400e00f50000c003a002000200010168800e3
:1006a4001000200010079800f00b2400f10d220028
:1006b4009000070004003700000f20001016880087
:1006c4000000eb0010079800a11680000000220033
:1006d40000806000e00f500012003a00a0002000eb
:1006e40030000700a1168000000022000080600096
:1006f400e00f50000f003a002e009000e00f500071
:100704000c003a0020002000101688001000200081
:1007140020079800f0022d00f10d2200750007005b
:1007240004003700000f2000101688000000eb00c2
:100734002007980011168000000820000080600047
:10074400e00f500012003a00a0002000150007003e
:10075400111680000008200000806000e00f5000a7
:10076400a0ff3a003e009000e00f50009fff3a00c7
:100774001000200010168800100020003007980098
:10078400f0032c00f10d22005a00070098ff3700f7
:10079400000f2000101688000000eb0030079800be
:1007a40093ff37000400fa00100798000000eb00e4
:1007b4003008880011e1a8001e0090004200dd000e
:1007c400000f7800000000009e00780030088000d0
:1007d400808f5000fcff3e000080fa0000000600fd
:1007e4000200fa00e0002000200c880060022000d3
:1007f400000f78001e007800cf80de000001be00ec
:1008040000fa20000100200046ff070000007800e5
:10081400700888000000eb00100c8800710880004c
:100824003000200000017800110009008280d80007
:10083400000c88000080fa00000006000200fa00a4
:10084400000f780013e1a8001e007800d5ff070010
:100854000080fa00000006000200fa00000f780091
:1008640013e1a9001e007800ceff07000080fa0003
:10087400000006000600fa001007980021079800ff
:100884000000eb00000f7800150037001e009000f8
:10089400ae009000e00f5000e08f580005003d00ce
:1008a40020232000e5ff070070692000eaff07000d
:1008b4000400370020232000e0ff0700202320004d
:1008c400e5ff07001e009000ae009000000040000d
:1008d4008180480010079800210798001e0fe80047
:1008e4001e007800ff0f5000e8ff34000080fa007b
:1008f400000006000400fa00008fbe0080322200cf
:10090400ceff070040192100d3ff07001e00be00e0
:10091400d8ff070020232000c8ff0700c0b7290024
:10092400cdff070090312200c4ff0700608f200034
:10093400c9ff070020232000c0ff07000000eb00d0
:0c094400c5ff07000080fa00000006005c
:020000040000fa
:0409500000000000a3
:020000040000fa
:020000040002f8
:04aff800be7a00001d
:020000040000fa
:020000040002f8
:04affc003f3f0000d3
:00000001FF
