:020000040000fa
:080000000002040000000000f2
:020000040000fa
:0400080044030000ad
:020000040000fa
:04000c0044030000a9
:020000040000fa
:0400100044030000a5
:020000040000fa
:0400140044030000a1
:020000040000fa
:04001800440300009d
:020000040000fa
:04001c004403000099
:020000040000fa
:040020004403000095
:020000040000fa
:040024004403000091
:020000040000fa
:04002800440300008d
:020000040000fa
:04002c004403000089
:020000040000fa
:040030004403000085
:020000040000fa
:040034000c030000b9
:020000040000fa
:04003800440300007d
:020000040000fa
:04003c004403000079
:020000040000fa
:040040004403000075
:020000040000fa
:04004400f8020000be
:020000040000fa
:04004800c8020000ea
:020000040000fa
:04004c004403000069
:020000040000fa
:040050004403000065
:020000040000fa
:040054004403000061
:020000040000fa
:04005800440300005d
:020000040000fa
:04005c004403000059
:020000040000fa
:040060004403000055
:020000040000fa
:040064004403000051
:020000040000fa
:04006800440300004d
:020000040000fa
:04006c004403000049
:020000040000fa
:040070004403000045
:020000040000fa
:040074004403000041
:020000040000fa
:04007800440300003d
:020000040000fa
:04007c004403000039
:020000040000fa
:040080004403000035
:020000040000fa
:040084004403000031
:020000040000fa
:04008800440300002d
:020000040000fa
:04008c004403000029
:020000040000fa
:040090004403000025
:020000040000fa
:040094004403000021
:020000040000fa
:04009800440300001d
:020000040000fa
:04009c004403000019
:020000040000fa
:0400a0004403000015
:020000040000fa
:0400a4004403000011
:020000040000fa
:0400a800440300000d
:020000040000fa
:0400ac004403000009
:020000040000fa
:0400b0004403000005
:020000040000fa
:0400b4004403000001
:020000040000fa
:0400b80044030000fd
:020000040000fa
:0400bc0044030000f9
:020000040000fa
:0400c00044030000f5
:020000040000fa
:0400c40044030000f1
:020000040000fa
:0400c80044030000ed
:020000040000fa
:0400cc0044030000e9
:020000040000fa
:0400d00044030000e5
:020000040000fa
:0400d40044030000e1
:020000040000fa
:0400d80044030000dd
:020000040000fa
:0400dc0044030000d9
:020000040000fa
:0400e00044030000d5
:020000040000fa
:0400e40044030000d1
:020000040000fa
:0400e80044030000cd
:020000040000fa
:0400ec0044030000c9
:020000040000fa
:0400f00044030000c5
:020000040000fa
:0400f40044030000c1
:020000040000fa
:0400f80044030000bd
:020000040000fa
:0400fc0044030000b9
:020000040000fa
:0401000044030000b4
:020000040000fa
:0401040044030000b0
:020000040000fa
:0401080044030000ac
:020000040000fa
:04010c0044030000a8
:020000040000fa
:0401100044030000a4
:020000040000fa
:0401140044030000a0
:020000040000fa
:04011800440300009c
:020000040000fa
:04011c004403000098
:020000040000fa
:040120004403000094
:020000040000fa
:040124004403000090
:020000040000fa
:04012800440300008c
:020000040000fa
:04012c004403000088
:020000040000fa
:040130004403000084
:020000040000fa
:040134004403000080
:020000040000fa
:0402080044030000ab
:020000040000fa
:04020c0044030000a7
:020000040000fa
:0402100044030000a3
:020000040000fa
:04021400440300009f
:020000040000fa
:04021800440300009b
:020000040000fa
:04021c004403000097
:020000040000fa
:040220004403000093
:020000040000fa
:04022400440300008f
:020000040000fa
:04022800440300008b
:020000040000fa
:04022c004403000087
:020000040000fa
:040230004403000083
:020000040000fa
:04023400440300007f
:020000040000fa
:04023800440300007b
:020000040000fa
:04023c004403000077
:020000040000fa
:040240004403000073
:020000040000fa
:04024400440300006f
:020000040000fa
:04024800440300006b
:020000040000fa
:04024c004403000067
:020000040000fa
:040250004403000063
:020000040000fa
:04025400440300005f
:020000040000fa
:04025800440300005b
:020000040000fa
:04025c004403000057
:020000040000fa
:040260004403000053
:020000040000fa
:04026400440300004f
:020000040000fa
:04026800440300004b
:020000040000fa
:04026c004403000047
:020000040000fa
:040270004403000043
:020000040000fa
:04027400440300003f
:020000040000fa
:04027800440300003b
:020000040000fa
:04027c004403000037
:020000040000fa
:040280004403000033
:020000040000fa
:04028400440300002f
:020000040000fa
:04028800440300002b
:020000040000fa
:04028c004403000027
:020000040000fa
:040290004403000023
:020000040000fa
:04029400440300001f
:020000040000fa
:04029800440300001b
:020000040000fa
:04029c004403000017
:020000040000fa
:0402a0004403000013
:020000040000fa
:0402a400440300000f
:020000040000fa
:0402a800440300000b
:020000040000fa
:0402ac004403000007
:020000040000fa
:0402b0004403000003
:020000040000fa
:0402b40044030000ff
:020000040000fa
:0402b80044030000fb
:020000040000fa
:0402bc0044030000f7
:020000040000fa
:0402c00044030000f3
:020000040000fa
:0402c40044030000ef
:020000040000fa
:0402c80044030000eb
:020000040000fa
:0402cc0044030000e7
:020000040000fa
:0402d00044030000e3
:020000040000fa
:0402d40044030000df
:020000040000fa
:0402d80044030000db
:020000040000fa
:0402dc0044030000d7
:020000040000fa
:0402e00044030000d3
:020000040000fa
:0402e40044030000cf
:020000040000fa
:0402e80044030000cb
:020000040000fa
:0402ec0044030000c7
:020000040000fa
:0402f00044030000c3
:020000040000fa
:0402f40044030000bf
:020000040000fa
:0402f80044030000bb
:020000040000fa
:0402fc0044030000b7
:020000040000fa
:0403000044030000b2
:020000040000fa
:0403040044030000ae
:020000040000fa
:0403080044030000aa
:020000040000fa
:04030c0044030000a6
:020000040000fa
:0403100044030000a2
:020000040000fa
:04031400440300009e
:020000040000fa
:04031800440300009a
:020000040000fa
:04031c004403000096
:020000040000fa
:040320004403000092
:020000040000fa
:04032400440300008e
:020000040000fa
:04032800440300008a
:020000040000fa
:04032c004403000086
:020000040000fa
:040330004403000082
:020000040000fa
:04033400440300007e
:020000040000fa
:100400002f8020000e7f22000e01880000000000d7
:10041000000020000000e000020032000001200087
:100420002002880014000700990007000000e00087
:1004300003003a002046200001002000020037009f
:100440000000200001002000810f70000100320038
:1004500014000700000020000000e000020032004d
:100460000000020000000000d403020000000000b1
:100470000040da000000fe004440a9000000200017
:100480000000e0000300320000002000a00188000e
:100490004440a800000006008a1f78008b1f7800e7
:1004a0000000060091018800800478000000eb0045
:1004b0001a003700e284440032a0b4009905ba0063
:1004c000e284440032a0b4009906ba00e2844400f9
:1004d00032a0b4000006eb00476fde00fd07b2005b
:1004e000636ce10003003a00ebff07000000eb0043
:1004f0000a003700606ce10004003a00005deb0088
:100500008b05e900fdff3e00040037006168e10053
:10051000010032000086eb000b00070019c7ba008b
:100520001905ba000e04e00003003a000a00e000da
:10053000e0ff3a0000000600fe07b2009e018800be
:100540008a047800f5ff3700395dba008b05e900b1
:100550000c003200295dba008b05e900080032006a
:100560000c00e00003003a00e284440032a0b40032
:10057000f5ff370019ddba008b05e900faff3a00f4
:100580008904e800e184440032a0b40000000600c1
:10059000809fbe003400f80000002000a001880009
:1005a0000000fa000140800020032000808f5000ee
:1005b00007003a0080002000200c88000621ef0090
:1005c00010002000600888000028ef0003003700ba
:1005d000004080000000e800004088008500a9007d
:1005e0000080fa003400f9004f00be000040060011
:1005f0003400f800881f780008002000a801880057
:100600004f0478000000fa0084e0a9000080fa009e
:100610003400f900004006003600f800809fbe005c
:10062000829fbe00849fbe00869fbe003400f800fb
:1006300000002000a00188000000fa00f00f200058
:1006400010168800400120001200070013e1a900e5
:10065000210c800080ff2f0000806000200c8800ab
:1006600005e1a9008460a9000080fa003400f900c7
:100670004f03be004f02be004f01be004f00be0040
:100680003600f900004006000040da000000fe00dd
:040690000000050061
:020000040000fa
:100694000200fa00000f780000002800800888009b
:1006a4000621ef0000fa20006008880006003700e9
:1006b400000000003108800060088000808f500036
:1006c400fcff39000621ef001e00780000f0a700af
:1006d4000000ea000000ea004f00de00004078005d
:1006e4001e0fe9000004e000f1ff3a000080fa0068
:1006f400000006000000fa000003200090088800b3
:100704000a21ef004105800080ff2f000080600077
:100714000010a000400588008500a9009500a800ed
:100724000080fa00000006000000fa000003200028
:10073400200888000021ef0000fa2000100888003b
:1007440021058000f0ff28000080600000c0a000a8
:10075400200588008460a9009460a8000080fa0045
:10076400000006000000fa0000002800900888003d
:100774008006200070088800e0002000200c88001b
:100784004105800080ff2f00008060000020a00051
:10079400400588008500a9009500a8000080fa00a3
:1007a400000006000c00fa0000f02f00001688007c
:1007b400d3a2a800cfff0700dbff070081e0a90058
:1007c40010002000200798000000eb00300798007c
:1007d4000000eb004007980010002000500798002c
:1007e400f00f200010168800a116800000002200df
:1007f400008060000000e0002e003a00500020005d
:10080400a3ff0700f00020001016880005e1a800ef
:100814000000eb00000f7800220037001e00780073
:1008240000004000e4004700008040009000780091
:10083400110798001e0090000000e0000300320041
:10084400e10f50000a00320015003700c5ff070011
:10085400010037000000000021048000000820008f
:10086400008060000000e000faff32000c00370056
:10087400bcff07008221ef0040032000000c880029
:10088400010037000000000021048000000820005f
:10089400008060000000e000faff32000000000069
:1008a4001e0fe8001e007800e30f5000dbff340049
:1008b400cdff3700000f200010168800caff370054
:020000040000fa
:1008c400000800000200000000000000000000001a
:020000040000fa
:020000040002f8
:04aff800befa00009d
:020000040000fa
:020000040002f8
:04affc00ff3f000013
:00000001FF
